{
  "contractName": "BoxingBets",
  "abi": [
    {
      "anonymous": false,
      "inputs": [
        {
          "indexed": true,
          "internalType": "address",
          "name": "previousOwner",
          "type": "address"
        },
        {
          "indexed": true,
          "internalType": "address",
          "name": "newOwner",
          "type": "address"
        }
      ],
      "name": "OwnershipTransferred",
      "type": "event"
    },
    {
      "constant": true,
      "inputs": [],
      "name": "owner",
      "outputs": [
        {
          "internalType": "address",
          "name": "",
          "type": "address"
        }
      ],
      "payable": false,
      "stateMutability": "view",
      "type": "function"
    },
    {
      "constant": false,
      "inputs": [
        {
          "internalType": "address",
          "name": "newOwner",
          "type": "address"
        }
      ],
      "name": "transferOwnership",
      "outputs": [],
      "payable": false,
      "stateMutability": "nonpayable",
      "type": "function"
    },
    {
      "constant": true,
      "inputs": [],
      "name": "getBettableMatches",
      "outputs": [
        {
          "internalType": "bytes32[]",
          "name": "",
          "type": "bytes32[]"
        }
      ],
      "payable": false,
      "stateMutability": "view",
      "type": "function"
    },
    {
      "constant": true,
      "inputs": [
        {
          "internalType": "bytes32",
          "name": "_matchId",
          "type": "bytes32"
        }
      ],
      "name": "getMatch",
      "outputs": [
        {
          "internalType": "bytes32",
          "name": "id",
          "type": "bytes32"
        },
        {
          "internalType": "string",
          "name": "name",
          "type": "string"
        },
        {
          "internalType": "string",
          "name": "participants",
          "type": "string"
        },
        {
          "internalType": "uint8",
          "name": "participantCount",
          "type": "uint8"
        },
        {
          "internalType": "uint256",
          "name": "date",
          "type": "uint256"
        },
        {
          "internalType": "enum OracleInterface.MatchOutcome",
          "name": "outcome",
          "type": "uint8"
        },
        {
          "internalType": "int8",
          "name": "winner",
          "type": "int8"
        }
      ],
      "payable": false,
      "stateMutability": "view",
      "type": "function"
    },
    {
      "constant": true,
      "inputs": [],
      "name": "getMostRecentMatch",
      "outputs": [
        {
          "internalType": "bytes32",
          "name": "id",
          "type": "bytes32"
        },
        {
          "internalType": "string",
          "name": "name",
          "type": "string"
        },
        {
          "internalType": "string",
          "name": "participants",
          "type": "string"
        },
        {
          "internalType": "uint256",
          "name": "participantCount",
          "type": "uint256"
        },
        {
          "internalType": "uint256",
          "name": "date",
          "type": "uint256"
        },
        {
          "internalType": "enum OracleInterface.MatchOutcome",
          "name": "outcome",
          "type": "uint8"
        },
        {
          "internalType": "int8",
          "name": "winner",
          "type": "int8"
        }
      ],
      "payable": false,
      "stateMutability": "view",
      "type": "function"
    },
    {
      "constant": false,
      "inputs": [
        {
          "internalType": "bytes32",
          "name": "_matchId",
          "type": "bytes32"
        },
        {
          "internalType": "uint8",
          "name": "_chosenWinner",
          "type": "uint8"
        }
      ],
      "name": "placeBet",
      "outputs": [],
      "payable": true,
      "stateMutability": "payable",
      "type": "function"
    },
    {
      "constant": true,
      "inputs": [],
      "name": "testOracleConnection",
      "outputs": [
        {
          "internalType": "bool",
          "name": "",
          "type": "bool"
        }
      ],
      "payable": false,
      "stateMutability": "view",
      "type": "function"
    },
    {
      "constant": false,
      "inputs": [
        {
          "internalType": "address",
          "name": "_oracleAddress",
          "type": "address"
        }
      ],
      "name": "setOracleAddress",
      "outputs": [
        {
          "internalType": "bool",
          "name": "",
          "type": "bool"
        }
      ],
      "payable": false,
      "stateMutability": "nonpayable",
      "type": "function"
    },
    {
      "constant": true,
      "inputs": [],
      "name": "getOracleAddress",
      "outputs": [
        {
          "internalType": "address",
          "name": "",
          "type": "address"
        }
      ],
      "payable": false,
      "stateMutability": "view",
      "type": "function"
    }
  ],
  "bytecode": "0x60806040526000600360006101000a81548173ffffffffffffffffffffffffffffffffffffffff021916908373ffffffffffffffffffffffffffffffffffffffff160217905550600360009054906101000a900473ffffffffffffffffffffffffffffffffffffffff16600460006101000a81548173ffffffffffffffffffffffffffffffffffffffff021916908373ffffffffffffffffffffffffffffffffffffffff16021790555064e8d4a51000600555336000806101000a81548173ffffffffffffffffffffffffffffffffffffffff021916908373ffffffffffffffffffffffffffffffffffffffff1602179055506113df806101016000396000f3fe6080604052600436106100865760003560e01c80638da5cb5b116100595780638da5cb5b146101ca578063b18b78dd14610221578063ced1b70814610278578063f2fde38b146103ab578063fcc6077d146103fc57610086565b80630e52bb491461008b5780632ce3707e146100c65780633397741b146100f55780634c69c00f14610161575b600080fd5b6100c4600480360360408110156100a157600080fd5b8101908080359060200190929190803560ff169060200190929190505050610559565b005b3480156100d257600080fd5b506100db61093f565b604051808215151515815260200191505060405180910390f35b34801561010157600080fd5b5061010a6109e9565b6040518080602001828103825283818151815260200191508051906020019060200280838360005b8381101561014d578082015181840152602081019050610132565b505050509050019250505060405180910390f35b34801561016d57600080fd5b506101b06004803603602081101561018457600080fd5b81019080803573ffffffffffffffffffffffffffffffffffffffff169060200190929190505050610b2d565b604051808215151515815260200191505060405180910390f35b3480156101d657600080fd5b506101df610cd6565b604051808273ffffffffffffffffffffffffffffffffffffffff1673ffffffffffffffffffffffffffffffffffffffff16815260200191505060405180910390f35b34801561022d57600080fd5b50610236610cfb565b604051808273ffffffffffffffffffffffffffffffffffffffff1673ffffffffffffffffffffffffffffffffffffffff16815260200191505060405180910390f35b34801561028457600080fd5b5061028d610d25565b6040518088815260200180602001806020018781526020018681526020018560038111156102b757fe5b60ff1681526020018460000b60000b8152602001838103835289818151815260200191508051906020019080838360005b838110156103035780820151818401526020810190506102e8565b50505050905090810190601f1680156103305780820380516001836020036101000a031916815260200191505b50838103825288818151815260200191508051906020019080838360005b8381101561036957808201518184015260208101905061034e565b50505050905090810190601f1680156103965780820380516001836020036101000a031916815260200191505b50995050505050505050505060405180910390f35b3480156103b757600080fd5b506103fa600480360360208110156103ce57600080fd5b81019080803573ffffffffffffffffffffffffffffffffffffffff169060200190929190505050610fa4565b005b34801561040857600080fd5b506104356004803603602081101561041f57600080fd5b81019080803590602001909291905050506110f5565b6040518088815260200180602001806020018760ff1660ff16815260200186815260200185600381111561046557fe5b60ff1681526020018460000b60000b8152602001838103835289818151815260200191508051906020019080838360005b838110156104b1578082015181840152602081019050610496565b50505050905090810190601f1680156104de5780820380516001836020036101000a031916815260200191505b50838103825288818151815260200191508051906020019080838360005b838110156105175780820151818401526020810190506104fc565b50505050905090810190601f1680156105445780820380516001836020036101000a031916815260200191505b50995050505050505050505060405180910390f35b6005543410156105b4576040517f08c379a000000000000000000000000000000000000000000000000000000000815260040180806020018281038252602181526020018061138a6021913960400191505060405180910390fd5b600460009054906101000a900473ffffffffffffffffffffffffffffffffffffffff1673ffffffffffffffffffffffffffffffffffffffff1663a9345240836040518263ffffffff1660e01b81526004018082815260200191505060206040518083038186803b15801561062757600080fd5b505afa15801561063b573d6000803e3d6000fd5b505050506040513d602081101561065157600080fd5b81019080805190602001909291905050506106d4576040517f08c379a00000000000000000000000000000000000000000000000000000000081526004018080602001828103825260198152602001807f537065636966696564206d61746368206e6f7420666f756e640000000000000081525060200191505060405180910390fd5b6106df338383611371565b610751576040517f08c379a00000000000000000000000000000000000000000000000000000000081526004018080602001828103825260108152602001807f426574206973206e6f742076616c69640000000000000000000000000000000081525060200191505060405180910390fd5b61075a8261137e565b6107cc576040517f08c379a000000000000000000000000000000000000000000000000000000000815260040180806020018281038252601a8152602001807f4d61746368206e6f74206f70656e20666f722062657474696e6700000000000081525060200191505060405180910390fd5b600060026000848152602001908152602001600020905060018160405180608001604052803373ffffffffffffffffffffffffffffffffffffffff1681526020018681526020013481526020018560ff168152509080600181540180825580915050906001820390600052602060002090600402016000909192909190915060008201518160000160006101000a81548173ffffffffffffffffffffffffffffffffffffffff021916908373ffffffffffffffffffffffffffffffffffffffff160217905550602082015181600101556040820151816002015560608201518160030160006101000a81548160ff021916908360ff160217905550505050506000600160003373ffffffffffffffffffffffffffffffffffffffff1673ffffffffffffffffffffffffffffffffffffffff16815260200190815260200160002090508084908060018154018082558091505090600182039060005260206000200160009091929091909150555050505050565b6000600460009054906101000a900473ffffffffffffffffffffffffffffffffffffffff1673ffffffffffffffffffffffffffffffffffffffff16633412a15c6040518163ffffffff1660e01b815260040160206040518083038186803b1580156109a957600080fd5b505afa1580156109bd573d6000803e3d6000fd5b505050506040513d60208110156109d357600080fd5b8101908080519060200190929190505050905090565b6060600460009054906101000a900473ffffffffffffffffffffffffffffffffffffffff1673ffffffffffffffffffffffffffffffffffffffff16635f29d4b16040518163ffffffff1660e01b815260040160006040518083038186803b158015610a5357600080fd5b505afa158015610a67573d6000803e3d6000fd5b505050506040513d6000823e3d601f19601f820116820180604052506020811015610a9157600080fd5b8101908080516040519392919084640100000000821115610ab157600080fd5b83820191506020820185811115610ac757600080fd5b8251866020820283011164010000000082111715610ae457600080fd5b8083526020830192505050908051906020019060200280838360005b83811015610b1b578082015181840152602081019050610b00565b50505050905001604052505050905090565b60008060009054906101000a900473ffffffffffffffffffffffffffffffffffffffff1673ffffffffffffffffffffffffffffffffffffffff163373ffffffffffffffffffffffffffffffffffffffff1614610b8857600080fd5b81600360006101000a81548173ffffffffffffffffffffffffffffffffffffffff021916908373ffffffffffffffffffffffffffffffffffffffff160217905550600360009054906101000a900473ffffffffffffffffffffffffffffffffffffffff16600460006101000a81548173ffffffffffffffffffffffffffffffffffffffff021916908373ffffffffffffffffffffffffffffffffffffffff160217905550600460009054906101000a900473ffffffffffffffffffffffffffffffffffffffff1673ffffffffffffffffffffffffffffffffffffffff16633412a15c6040518163ffffffff1660e01b815260040160206040518083038186803b158015610c9457600080fd5b505afa158015610ca8573d6000803e3d6000fd5b505050506040513d6020811015610cbe57600080fd5b81019080805190602001909291905050509050919050565b6000809054906101000a900473ffffffffffffffffffffffffffffffffffffffff1681565b6000600360009054906101000a900473ffffffffffffffffffffffffffffffffffffffff16905090565b6000606080600080600080600460009054906101000a900473ffffffffffffffffffffffffffffffffffffffff1673ffffffffffffffffffffffffffffffffffffffff1663bb2b0f5860016040518263ffffffff1660e01b8152600401808215151515815260200191505060006040518083038186803b158015610da857600080fd5b505afa158015610dbc573d6000803e3d6000fd5b505050506040513d6000823e3d601f19601f8201168201806040525060e0811015610de657600080fd5b810190808051906020019092919080516040519392919084640100000000821115610e1057600080fd5b83820191506020820185811115610e2657600080fd5b8251866001820283011164010000000082111715610e4357600080fd5b8083526020830192505050908051906020019080838360005b83811015610e77578082015181840152602081019050610e5c565b50505050905090810190601f168015610ea45780820380516001836020036101000a031916815260200191505b5060405260200180516040519392919084640100000000821115610ec757600080fd5b83820191506020820185811115610edd57600080fd5b8251866001820283011164010000000082111715610efa57600080fd5b8083526020830192505050908051906020019080838360005b83811015610f2e578082015181840152602081019050610f13565b50505050905090810190601f168015610f5b5780820380516001836020036101000a031916815260200191505b5060405260200180519060200190929190805190602001909291908051906020019092919080519060200190929190505050965096509650965096509650965090919293949596565b6000809054906101000a900473ffffffffffffffffffffffffffffffffffffffff1673ffffffffffffffffffffffffffffffffffffffff163373ffffffffffffffffffffffffffffffffffffffff1614610ffd57600080fd5b600073ffffffffffffffffffffffffffffffffffffffff168173ffffffffffffffffffffffffffffffffffffffff16141561103757600080fd5b8073ffffffffffffffffffffffffffffffffffffffff166000809054906101000a900473ffffffffffffffffffffffffffffffffffffffff1673ffffffffffffffffffffffffffffffffffffffff167f8be0079c531659141344cd1fd0a4f28419497f9722a3daafe3b4186f6b6457e060405160405180910390a3806000806101000a81548173ffffffffffffffffffffffffffffffffffffffff021916908373ffffffffffffffffffffffffffffffffffffffff16021790555050565b6000606080600080600080600460009054906101000a900473ffffffffffffffffffffffffffffffffffffffff1673ffffffffffffffffffffffffffffffffffffffff1663fcc6077d896040518263ffffffff1660e01b81526004018082815260200191505060006040518083038186803b15801561117357600080fd5b505afa158015611187573d6000803e3d6000fd5b505050506040513d6000823e3d601f19601f8201168201806040525060e08110156111b157600080fd5b8101908080519060200190929190805160405193929190846401000000008211156111db57600080fd5b838201915060208201858111156111f157600080fd5b825186600182028301116401000000008211171561120e57600080fd5b8083526020830192505050908051906020019080838360005b83811015611242578082015181840152602081019050611227565b50505050905090810190601f16801561126f5780820380516001836020036101000a031916815260200191505b506040526020018051604051939291908464010000000082111561129257600080fd5b838201915060208201858111156112a857600080fd5b82518660018202830111640100000000821117156112c557600080fd5b8083526020830192505050908051906020019080838360005b838110156112f95780820151818401526020810190506112de565b50505050905090810190601f1680156113265780820380516001836020036101000a031916815260200191505b50604052602001805190602001909291908051906020019092919080519060200190929190805190602001909291905050509650965096509650965096509650919395979092949650565b6000600190509392505050565b60006001905091905056fe42657420616d6f756e74206d757374206265203e3d206d696e696d756d20626574a265627a7a723158205d4ff730f112f4148c55edfd199269aa2f84fd81099fadec1fc51137f46bbb5c64736f6c634300050c0032",
  "source": "pragma solidity ^0.5.12;\r\n\r\nimport \"./Ownable.sol\";\r\nimport \"./OracleInterface.sol\";\r\n\r\n\r\n/// @title BoxingBets\r\n/// @author John R. Kosinski\r\n/// @notice Takes bets and handles payouts for boxing matches\r\ncontract BoxingBets is Ownable {\r\n\r\n    //mappings\r\n    mapping(address => bytes32[]) private userToBets;\r\n    mapping(bytes32 => Bet[]) private matchToBets;\r\n\r\n    //boxing results oracle\r\n    address internal boxingOracleAddr = address(0);\r\n        OracleInterface internal boxingOracle = OracleInterface(boxingOracleAddr);\r\n\r\n    //constants\r\n    uint internal minimumBet = 1000000000000;\r\n\r\n    struct Bet {\r\n        address user;\r\n        bytes32 matchId;\r\n        uint amount;\r\n        uint8 chosenWinner;\r\n    }\r\n\r\n    enum BettableOutcome {\r\n        Fighter1,\r\n        Fighter2\r\n    }\r\n\r\n    /// @notice determines whether or not the user has already bet on the given match\r\n    /// @param _user address of a user\r\n    /// @param _matchId id of a match\r\n    /// @param _chosenWinner the index of the participant to bet on (to win)\r\n    /// @return true if the given user has already placed a bet on the given match\r\n    function _betIsValid(address _user, bytes32 _matchId, uint8 _chosenWinner) private view returns (bool) {\r\n\r\n        return true;\r\n    }\r\n\r\n    /// @notice determines whether or not bets may still be accepted for the given match\r\n    /// @param _matchId id of a match\r\n    /// @return true if the match is bettable\r\n    function _matchOpenForBetting(bytes32 _matchId) private view returns (bool) {\r\n\r\n        return true;\r\n    }\r\n\r\n\r\n    /// @notice gets a list ids of all currently bettable matches\r\n    /// @return array of match ids\r\n    function getBettableMatches() public view returns (bytes32[] memory) {\r\n        return boxingOracle.getPendingMatches();\r\n    }\r\n\r\n    /// @notice returns the full data of the specified match\r\n    /// @param _matchId the id of the desired match\r\n    /// @return match data\r\n    function getMatch(bytes32 _matchId) public view returns (\r\n        bytes32 id,\r\n        string memory name,\r\n        string memory participants,\r\n        uint8 participantCount,\r\n        uint date,\r\n        OracleInterface.MatchOutcome outcome,\r\n        int8 winner) {\r\n\r\n        return boxingOracle.getMatch(_matchId);\r\n    }\r\n\r\n    /// @notice returns the full data of the most recent bettable match\r\n    /// @return match data\r\n    function getMostRecentMatch() public view returns (\r\n        bytes32 id,\r\n        string memory name,\r\n        string memory participants,\r\n        uint participantCount,\r\n        uint date,\r\n        OracleInterface.MatchOutcome outcome,\r\n        int8 winner) {\r\n\r\n        return boxingOracle.getMostRecentMatch(true);\r\n    }\r\n\r\n    /// @notice places a non-rescindable bet on the given match\r\n    /// @param _matchId the id of the match on which to bet\r\n    /// @param _chosenWinner the index of the participant chosen as winner\r\n    function placeBet(bytes32 _matchId, uint8 _chosenWinner) public payable {\r\n\r\n        //bet must be above a certain minimum\r\n        require(msg.value >= minimumBet, \"Bet amount must be >= minimum bet\");\r\n\r\n        //make sure that match exists\r\n        require(boxingOracle.matchExists(_matchId), \"Specified match not found\");\r\n\r\n        //require that chosen winner falls within the defined number of participants for match\r\n        require(_betIsValid(msg.sender, _matchId, _chosenWinner), \"Bet is not valid\");\r\n\r\n        //match must still be open for betting\r\n        require(_matchOpenForBetting(_matchId), \"Match not open for betting\");\r\n\r\n        //transfer the money into the account\r\n        //address(this).transfer(msg.value);\r\n\r\n        //add the new bet\r\n        Bet[] storage bets = matchToBets[_matchId];\r\n        bets.push(Bet(msg.sender, _matchId, msg.value, _chosenWinner))-1;\r\n\r\n        //add the mapping\r\n        bytes32[] storage userBets = userToBets[msg.sender];\r\n        userBets.push(_matchId);\r\n    }\r\n\r\n    /// @notice for testing; tests that the boxing oracle is callable\r\n    /// @return true if connection successful\r\n    function testOracleConnection() public view returns (bool) {\r\n        return boxingOracle.testConnection();\r\n    }\r\n\r\n    /// @notice sets the address of the boxing oracle contract to use\r\n    /// @dev setting a wrong address may result in false return value, or error\r\n    /// @param _oracleAddress the address of the boxing oracle\r\n    /// @return true if connection to the new oracle address was successful\r\n    function setOracleAddress(address _oracleAddress) external onlyOwner returns (bool) {\r\n        boxingOracleAddr = _oracleAddress;\r\n        boxingOracle = OracleInterface(boxingOracleAddr);\r\n        return boxingOracle.testConnection();\r\n    }\r\n\r\n    /// @notice gets the address of the boxing oracle being used\r\n    /// @return the address of the currently set oracle\r\n    function getOracleAddress() external view returns (address) {\r\n        return boxingOracleAddr;\r\n    }\r\n}",
  "sourcePath": "C:/Users/marcl/Documents/fintech/oracle_gas_concept/client/contracts/BoxingBets.sol",
  "compiler": {
    "name": "solc",
    "version": "0.5.12+commit.7709ece9.Emscripten.clang"
  },
  "schemaVersion": "3.0.20",
  "updatedAt": "2020-01-23T20:53:17.106Z",
  "devdoc": {
    "author": "John R. Kosinski",
    "methods": {
      "getBettableMatches()": {
        "return": "array of match ids"
      },
      "getMatch(bytes32)": {
        "params": {
          "_matchId": "the id of the desired match"
        },
        "return": "match data"
      },
      "getMostRecentMatch()": {
        "return": "match data"
      },
      "getOracleAddress()": {
        "return": "the address of the currently set oracle"
      },
      "placeBet(bytes32,uint8)": {
        "params": {
          "_chosenWinner": "the index of the participant chosen as winner",
          "_matchId": "the id of the match on which to bet"
        }
      },
      "setOracleAddress(address)": {
        "details": "setting a wrong address may result in false return value, or error",
        "params": {
          "_oracleAddress": "the address of the boxing oracle"
        },
        "return": "true if connection to the new oracle address was successful"
      },
      "testOracleConnection()": {
        "return": "true if connection successful"
      },
      "transferOwnership(address)": {
        "details": "Allows the current owner to transfer control of the contract to a newOwner.",
        "params": {
          "newOwner": "The address to transfer ownership to."
        }
      }
    },
    "title": "BoxingBets"
  },
  "userdoc": {
    "methods": {
      "getBettableMatches()": {
        "notice": "gets a list ids of all currently bettable matches"
      },
      "getMatch(bytes32)": {
        "notice": "returns the full data of the specified match"
      },
      "getMostRecentMatch()": {
        "notice": "returns the full data of the most recent bettable match"
      },
      "getOracleAddress()": {
        "notice": "gets the address of the boxing oracle being used"
      },
      "placeBet(bytes32,uint8)": {
        "notice": "places a non-rescindable bet on the given match"
      },
      "setOracleAddress(address)": {
        "notice": "sets the address of the boxing oracle contract to use"
      },
      "testOracleConnection()": {
        "notice": "for testing; tests that the boxing oracle is callable"
      }
    },
    "notice": "Takes bets and handles payouts for boxing matches"
  }
}